{
  "_format": "hh-sol-artifact-1",
  "contractName": "NFTMarketplace",
  "sourceName": "contracts/NftMarketplace.sol",
  "abi": [
    {
      "inputs": [],
      "stateMutability": "nonpayable",
      "type": "constructor"
    },
    {
      "anonymous": false,
      "inputs": [
        {
          "indexed": true,
          "internalType": "address",
          "name": "owner",
          "type": "address"
        },
        {
          "indexed": true,
          "internalType": "address",
          "name": "approved",
          "type": "address"
        },
        {
          "indexed": true,
          "internalType": "uint256",
          "name": "tokenId",
          "type": "uint256"
        }
      ],
      "name": "Approval",
      "type": "event"
    },
    {
      "anonymous": false,
      "inputs": [
        {
          "indexed": true,
          "internalType": "address",
          "name": "owner",
          "type": "address"
        },
        {
          "indexed": true,
          "internalType": "address",
          "name": "operator",
          "type": "address"
        },
        {
          "indexed": false,
          "internalType": "bool",
          "name": "approved",
          "type": "bool"
        }
      ],
      "name": "ApprovalForAll",
      "type": "event"
    },
    {
      "anonymous": false,
      "inputs": [
        {
          "indexed": false,
          "internalType": "uint256",
          "name": "_fromTokenId",
          "type": "uint256"
        },
        {
          "indexed": false,
          "internalType": "uint256",
          "name": "_toTokenId",
          "type": "uint256"
        }
      ],
      "name": "BatchMetadataUpdate",
      "type": "event"
    },
    {
      "anonymous": false,
      "inputs": [
        {
          "indexed": false,
          "internalType": "uint256",
          "name": "_tokenId",
          "type": "uint256"
        }
      ],
      "name": "MetadataUpdate",
      "type": "event"
    },
    {
      "anonymous": false,
      "inputs": [
        {
          "indexed": true,
          "internalType": "address",
          "name": "from",
          "type": "address"
        },
        {
          "indexed": true,
          "internalType": "address",
          "name": "to",
          "type": "address"
        },
        {
          "indexed": true,
          "internalType": "uint256",
          "name": "tokenId",
          "type": "uint256"
        }
      ],
      "name": "Transfer",
      "type": "event"
    },
    {
      "anonymous": false,
      "inputs": [
        {
          "indexed": true,
          "internalType": "uint256",
          "name": "tokenId",
          "type": "uint256"
        },
        {
          "indexed": false,
          "internalType": "address",
          "name": "seller",
          "type": "address"
        },
        {
          "indexed": false,
          "internalType": "address",
          "name": "owner",
          "type": "address"
        },
        {
          "indexed": false,
          "internalType": "uint256",
          "name": "price",
          "type": "uint256"
        },
        {
          "indexed": false,
          "internalType": "bool",
          "name": "sold",
          "type": "bool"
        }
      ],
      "name": "idMarketItemCreated",
      "type": "event"
    },
    {
      "inputs": [
        {
          "internalType": "address",
          "name": "to",
          "type": "address"
        },
        {
          "internalType": "uint256",
          "name": "tokenId",
          "type": "uint256"
        }
      ],
      "name": "approve",
      "outputs": [],
      "stateMutability": "nonpayable",
      "type": "function"
    },
    {
      "inputs": [
        {
          "internalType": "address",
          "name": "owner",
          "type": "address"
        }
      ],
      "name": "balanceOf",
      "outputs": [
        {
          "internalType": "uint256",
          "name": "",
          "type": "uint256"
        }
      ],
      "stateMutability": "view",
      "type": "function"
    },
    {
      "inputs": [
        {
          "internalType": "uint256",
          "name": "tokenId",
          "type": "uint256"
        }
      ],
      "name": "createMarketSale",
      "outputs": [],
      "stateMutability": "payable",
      "type": "function"
    },
    {
      "inputs": [
        {
          "internalType": "string",
          "name": "tokenURI",
          "type": "string"
        },
        {
          "internalType": "uint256",
          "name": "price",
          "type": "uint256"
        }
      ],
      "name": "createToken",
      "outputs": [
        {
          "internalType": "uint256",
          "name": "",
          "type": "uint256"
        }
      ],
      "stateMutability": "payable",
      "type": "function"
    },
    {
      "inputs": [],
      "name": "fetchItemsListed",
      "outputs": [
        {
          "components": [
            {
              "internalType": "uint256",
              "name": "tokenId",
              "type": "uint256"
            },
            {
              "internalType": "address payable",
              "name": "seller",
              "type": "address"
            },
            {
              "internalType": "address payable",
              "name": "owner",
              "type": "address"
            },
            {
              "internalType": "uint256",
              "name": "price",
              "type": "uint256"
            },
            {
              "internalType": "bool",
              "name": "sold",
              "type": "bool"
            }
          ],
          "internalType": "struct NFTMarketplace.MarketItem[]",
          "name": "",
          "type": "tuple[]"
        }
      ],
      "stateMutability": "view",
      "type": "function"
    },
    {
      "inputs": [],
      "name": "fetchMarketItem",
      "outputs": [
        {
          "components": [
            {
              "internalType": "uint256",
              "name": "tokenId",
              "type": "uint256"
            },
            {
              "internalType": "address payable",
              "name": "seller",
              "type": "address"
            },
            {
              "internalType": "address payable",
              "name": "owner",
              "type": "address"
            },
            {
              "internalType": "uint256",
              "name": "price",
              "type": "uint256"
            },
            {
              "internalType": "bool",
              "name": "sold",
              "type": "bool"
            }
          ],
          "internalType": "struct NFTMarketplace.MarketItem[]",
          "name": "",
          "type": "tuple[]"
        }
      ],
      "stateMutability": "view",
      "type": "function"
    },
    {
      "inputs": [],
      "name": "fetchMyNFT",
      "outputs": [
        {
          "components": [
            {
              "internalType": "uint256",
              "name": "tokenId",
              "type": "uint256"
            },
            {
              "internalType": "address payable",
              "name": "seller",
              "type": "address"
            },
            {
              "internalType": "address payable",
              "name": "owner",
              "type": "address"
            },
            {
              "internalType": "uint256",
              "name": "price",
              "type": "uint256"
            },
            {
              "internalType": "bool",
              "name": "sold",
              "type": "bool"
            }
          ],
          "internalType": "struct NFTMarketplace.MarketItem[]",
          "name": "",
          "type": "tuple[]"
        }
      ],
      "stateMutability": "view",
      "type": "function"
    },
    {
      "inputs": [
        {
          "internalType": "uint256",
          "name": "tokenId",
          "type": "uint256"
        }
      ],
      "name": "getApproved",
      "outputs": [
        {
          "internalType": "address",
          "name": "",
          "type": "address"
        }
      ],
      "stateMutability": "view",
      "type": "function"
    },
    {
      "inputs": [],
      "name": "getListingPrice",
      "outputs": [
        {
          "internalType": "uint256",
          "name": "",
          "type": "uint256"
        }
      ],
      "stateMutability": "view",
      "type": "function"
    },
    {
      "inputs": [
        {
          "internalType": "address",
          "name": "owner",
          "type": "address"
        },
        {
          "internalType": "address",
          "name": "operator",
          "type": "address"
        }
      ],
      "name": "isApprovedForAll",
      "outputs": [
        {
          "internalType": "bool",
          "name": "",
          "type": "bool"
        }
      ],
      "stateMutability": "view",
      "type": "function"
    },
    {
      "inputs": [],
      "name": "listingPrice",
      "outputs": [
        {
          "internalType": "uint256",
          "name": "",
          "type": "uint256"
        }
      ],
      "stateMutability": "view",
      "type": "function"
    },
    {
      "inputs": [],
      "name": "name",
      "outputs": [
        {
          "internalType": "string",
          "name": "",
          "type": "string"
        }
      ],
      "stateMutability": "view",
      "type": "function"
    },
    {
      "inputs": [],
      "name": "owner",
      "outputs": [
        {
          "internalType": "address payable",
          "name": "",
          "type": "address"
        }
      ],
      "stateMutability": "view",
      "type": "function"
    },
    {
      "inputs": [
        {
          "internalType": "uint256",
          "name": "tokenId",
          "type": "uint256"
        }
      ],
      "name": "ownerOf",
      "outputs": [
        {
          "internalType": "address",
          "name": "",
          "type": "address"
        }
      ],
      "stateMutability": "view",
      "type": "function"
    },
    {
      "inputs": [
        {
          "internalType": "uint256",
          "name": "tokenId",
          "type": "uint256"
        },
        {
          "internalType": "uint256",
          "name": "price",
          "type": "uint256"
        }
      ],
      "name": "reSellToken",
      "outputs": [],
      "stateMutability": "payable",
      "type": "function"
    },
    {
      "inputs": [
        {
          "internalType": "address",
          "name": "from",
          "type": "address"
        },
        {
          "internalType": "address",
          "name": "to",
          "type": "address"
        },
        {
          "internalType": "uint256",
          "name": "tokenId",
          "type": "uint256"
        }
      ],
      "name": "safeTransferFrom",
      "outputs": [],
      "stateMutability": "nonpayable",
      "type": "function"
    },
    {
      "inputs": [
        {
          "internalType": "address",
          "name": "from",
          "type": "address"
        },
        {
          "internalType": "address",
          "name": "to",
          "type": "address"
        },
        {
          "internalType": "uint256",
          "name": "tokenId",
          "type": "uint256"
        },
        {
          "internalType": "bytes",
          "name": "data",
          "type": "bytes"
        }
      ],
      "name": "safeTransferFrom",
      "outputs": [],
      "stateMutability": "nonpayable",
      "type": "function"
    },
    {
      "inputs": [
        {
          "internalType": "address",
          "name": "operator",
          "type": "address"
        },
        {
          "internalType": "bool",
          "name": "approved",
          "type": "bool"
        }
      ],
      "name": "setApprovalForAll",
      "outputs": [],
      "stateMutability": "nonpayable",
      "type": "function"
    },
    {
      "inputs": [
        {
          "internalType": "bytes4",
          "name": "interfaceId",
          "type": "bytes4"
        }
      ],
      "name": "supportsInterface",
      "outputs": [
        {
          "internalType": "bool",
          "name": "",
          "type": "bool"
        }
      ],
      "stateMutability": "view",
      "type": "function"
    },
    {
      "inputs": [],
      "name": "symbol",
      "outputs": [
        {
          "internalType": "string",
          "name": "",
          "type": "string"
        }
      ],
      "stateMutability": "view",
      "type": "function"
    },
    {
      "inputs": [
        {
          "internalType": "uint256",
          "name": "tokenId",
          "type": "uint256"
        }
      ],
      "name": "tokenURI",
      "outputs": [
        {
          "internalType": "string",
          "name": "",
          "type": "string"
        }
      ],
      "stateMutability": "view",
      "type": "function"
    },
    {
      "inputs": [
        {
          "internalType": "address",
          "name": "from",
          "type": "address"
        },
        {
          "internalType": "address",
          "name": "to",
          "type": "address"
        },
        {
          "internalType": "uint256",
          "name": "tokenId",
          "type": "uint256"
        }
      ],
      "name": "transferFrom",
      "outputs": [],
      "stateMutability": "nonpayable",
      "type": "function"
    },
    {
      "inputs": [
        {
          "internalType": "uint256",
          "name": "_listingPrice",
          "type": "uint256"
        }
      ],
      "name": "updateListingPrice",
      "outputs": [],
      "stateMutability": "payable",
      "type": "function"
    }
  ],
  "bytecode": "0x60806040526605543df729c0006009553480156200001c57600080fd5b506040518060400160405280601081526020017f4d657461766572736520546f6b656e73000000000000000000000000000000008152506040518060400160405280600581526020017f4d794e465400000000000000000000000000000000000000000000000000000081525081600090816200009a919062000370565b508060019081620000ac919062000370565b50505033600a60006101000a81548173ffffffffffffffffffffffffffffffffffffffff021916908373ffffffffffffffffffffffffffffffffffffffff16021790555062000457565b600081519050919050565b7f4e487b7100000000000000000000000000000000000000000000000000000000600052604160045260246000fd5b7f4e487b7100000000000000000000000000000000000000000000000000000000600052602260045260246000fd5b600060028204905060018216806200017857607f821691505b6020821081036200018e576200018d62000130565b5b50919050565b60008190508160005260206000209050919050565b60006020601f8301049050919050565b600082821b905092915050565b600060088302620001f87fffffffffffffffffffffffffffffffffffffffffffffffffffffffffffffffff82620001b9565b620002048683620001b9565b95508019841693508086168417925050509392505050565b6000819050919050565b6000819050919050565b6000620002516200024b62000245846200021c565b62000226565b6200021c565b9050919050565b6000819050919050565b6200026d8362000230565b620002856200027c8262000258565b848454620001c6565b825550505050565b600090565b6200029c6200028d565b620002a981848462000262565b505050565b5b81811015620002d157620002c560008262000292565b600181019050620002af565b5050565b601f8211156200032057620002ea8162000194565b620002f584620001a9565b8101602085101562000305578190505b6200031d6200031485620001a9565b830182620002ae565b50505b505050565b600082821c905092915050565b6000620003456000198460080262000325565b1980831691505092915050565b600062000360838362000332565b9150826002028217905092915050565b6200037b82620000f6565b67ffffffffffffffff81111562000397576200039662000101565b5b620003a382546200015f565b620003b0828285620002d5565b600060209050601f831160018114620003e85760008415620003d3578287015190505b620003df858262000352565b8655506200044f565b601f198416620003f88662000194565b60005b828110156200042257848901518255600182019150602085019450602081019050620003fb565b868310156200044257848901516200043e601f89168262000332565b8355505b6001600288020188555050505b505050505050565b61429680620004676000396000f3fe6080604052600436106101405760003560e01c806385535b25116100b6578063b88d4fde1161006f578063b88d4fde14610447578063be9af53614610470578063c18763f71461048c578063c78f19f9146104b7578063c87b56dd146104e2578063e985e9c51461051f57610140565b806385535b25146103655780638da5cb5b146103815780638fafd021146103ac57806395d89b41146103d7578063a22cb46514610402578063ae677aa31461042b57610140565b806323b872dd1161010857806323b872dd1461023e57806342842e0e1461026757806345f8fa80146102905780636352211e146102bb57806370a08231146102f857806372b3b6201461033557610140565b806301ffc9a71461014557806306fdde0314610182578063081812fc146101ad578063095ea7b3146101ea57806312e8558514610213575b600080fd5b34801561015157600080fd5b5061016c60048036038101906101679190612b9e565b61055c565b6040516101799190612be6565b60405180910390f35b34801561018e57600080fd5b506101976105bd565b6040516101a49190612c91565b60405180910390f35b3480156101b957600080fd5b506101d460048036038101906101cf9190612ce9565b61064f565b6040516101e19190612d57565b60405180910390f35b3480156101f657600080fd5b50610211600480360381019061020c9190612d9e565b610695565b005b34801561021f57600080fd5b506102286107ac565b6040516102359190612ded565b60405180910390f35b34801561024a57600080fd5b5061026560048036038101906102609190612e08565b6107b6565b005b34801561027357600080fd5b5061028e60048036038101906102899190612e08565b610816565b005b34801561029c57600080fd5b506102a5610836565b6040516102b29190612fb1565b60405180910390f35b3480156102c757600080fd5b506102e260048036038101906102dd9190612ce9565b610b16565b6040516102ef9190612d57565b60405180910390f35b34801561030457600080fd5b5061031f600480360381019061031a9190612fd3565b610b9c565b60405161032c9190612ded565b60405180910390f35b61034f600480360381019061034a9190613135565b610c53565b60405161035c9190612ded565b60405180910390f35b61037f600480360381019061037a9190613191565b610c95565b005b34801561038d57600080fd5b50610396610e8a565b6040516103a391906131e0565b60405180910390f35b3480156103b857600080fd5b506103c1610eb0565b6040516103ce9190612fb1565b60405180910390f35b3480156103e357600080fd5b506103ec611112565b6040516103f99190612c91565b60405180910390f35b34801561040e57600080fd5b5061042960048036038101906104249190613227565b6111a4565b005b61044560048036038101906104409190612ce9565b6111ba565b005b34801561045357600080fd5b5061046e60048036038101906104699190613308565b611254565b005b61048a60048036038101906104859190612ce9565b6112b6565b005b34801561049857600080fd5b506104a1611483565b6040516104ae9190612fb1565b60405180910390f35b3480156104c357600080fd5b506104cc611763565b6040516104d99190612ded565b60405180910390f35b3480156104ee57600080fd5b5061050960048036038101906105049190612ce9565b611769565b6040516105169190612c91565b60405180910390f35b34801561052b57600080fd5b506105466004803603810190610541919061338b565b61187b565b6040516105539190612be6565b60405180910390f35b6000634906490660e01b7bffffffffffffffffffffffffffffffffffffffffffffffffffffffff1916827bffffffffffffffffffffffffffffffffffffffffffffffffffffffff191614806105b657506105b58261190f565b5b9050919050565b6060600080546105cc906133fa565b80601f01602080910402602001604051908101604052809291908181526020018280546105f8906133fa565b80156106455780601f1061061a57610100808354040283529160200191610645565b820191906000526020600020905b81548152906001019060200180831161062857829003601f168201915b5050505050905090565b600061065a826119f1565b6004600083815260200190815260200160002060009054906101000a900473ffffffffffffffffffffffffffffffffffffffff169050919050565b60006106a082610b16565b90508073ffffffffffffffffffffffffffffffffffffffff168373ffffffffffffffffffffffffffffffffffffffff1603610710576040517f08c379a00000000000000000000000000000000000000000000000000000000081526004016107079061349d565b60405180910390fd5b8073ffffffffffffffffffffffffffffffffffffffff1661072f611a3c565b73ffffffffffffffffffffffffffffffffffffffff16148061075e575061075d81610758611a3c565b61187b565b5b61079d576040517f08c379a00000000000000000000000000000000000000000000000000000000081526004016107949061352f565b60405180910390fd5b6107a78383611a44565b505050565b6000600954905090565b6107c76107c1611a3c565b82611afd565b610806576040517f08c379a00000000000000000000000000000000000000000000000000000000081526004016107fd906135c1565b60405180910390fd5b610811838383611b92565b505050565b61083183838360405180602001604052806000815250611254565b505050565b606060006108446007611e8b565b905060008060005b838110156108e6573373ffffffffffffffffffffffffffffffffffffffff16600b600060018461087c9190613610565b815260200190815260200160002060010160009054906101000a900473ffffffffffffffffffffffffffffffffffffffff1673ffffffffffffffffffffffffffffffffffffffff16036108d9576001836108d69190613610565b92505b808060010191505061084c565b5060008267ffffffffffffffff8111156109035761090261300a565b5b60405190808252806020026020018201604052801561093c57816020015b610929612ad5565b8152602001906001900390816109215790505b50905060005b84811015610b0b573373ffffffffffffffffffffffffffffffffffffffff16600b60006001846109729190613610565b815260200190815260200160002060010160009054906101000a900473ffffffffffffffffffffffffffffffffffffffff1673ffffffffffffffffffffffffffffffffffffffff1603610afe5760006001826109ce9190613610565b90506000600b60008381526020019081526020016000209050806040518060a0016040529081600082015481526020016001820160009054906101000a900473ffffffffffffffffffffffffffffffffffffffff1673ffffffffffffffffffffffffffffffffffffffff1673ffffffffffffffffffffffffffffffffffffffff1681526020016002820160009054906101000a900473ffffffffffffffffffffffffffffffffffffffff1673ffffffffffffffffffffffffffffffffffffffff1673ffffffffffffffffffffffffffffffffffffffff168152602001600382015481526020016004820160009054906101000a900460ff161515151581525050848681518110610ae157610ae0613644565b5b6020026020010181905250600185610af99190613610565b945050505b8080600101915050610942565b508094505050505090565b600080610b2283611e99565b9050600073ffffffffffffffffffffffffffffffffffffffff168173ffffffffffffffffffffffffffffffffffffffff1603610b93576040517f08c379a0000000000000000000000000000000000000000000000000000000008152600401610b8a906136bf565b60405180910390fd5b80915050919050565b60008073ffffffffffffffffffffffffffffffffffffffff168273ffffffffffffffffffffffffffffffffffffffff1603610c0c576040517f08c379a0000000000000000000000000000000000000000000000000000000008152600401610c0390613751565b60405180910390fd5b600360008373ffffffffffffffffffffffffffffffffffffffff1673ffffffffffffffffffffffffffffffffffffffff168152602001908152602001600020549050919050565b6000610c5f6007611ed6565b6000610c6b6007611e8b565b9050610c773382611eec565b610c818185612109565b610c8b81846121ad565b8091505092915050565b3373ffffffffffffffffffffffffffffffffffffffff16600b600084815260200190815260200160002060020160009054906101000a900473ffffffffffffffffffffffffffffffffffffffff1673ffffffffffffffffffffffffffffffffffffffff1614610d39576040517f08c379a0000000000000000000000000000000000000000000000000000000008152600401610d30906137e3565b60405180910390fd5b6009543414610d7d576040517f08c379a0000000000000000000000000000000000000000000000000000000008152600401610d7490613875565b60405180910390fd5b6000600b600084815260200190815260200160002060040160006101000a81548160ff02191690831515021790555080600b60008481526020019081526020016000206003018190555033600b600084815260200190815260200160002060010160006101000a81548173ffffffffffffffffffffffffffffffffffffffff021916908373ffffffffffffffffffffffffffffffffffffffff16021790555030600b600084815260200190815260200160002060020160006101000a81548173ffffffffffffffffffffffffffffffffffffffff021916908373ffffffffffffffffffffffffffffffffffffffff160217905550610e7b60086123b0565b610e86333084611b92565b5050565b600a60009054906101000a900473ffffffffffffffffffffffffffffffffffffffff1681565b60606000610ebe6007611e8b565b90506000610ecc6008611e8b565b610ed66007611e8b565b610ee09190613895565b90506000808267ffffffffffffffff811115610eff57610efe61300a565b5b604051908082528060200260200182016040528015610f3857816020015b610f25612ad5565b815260200190600190039081610f1d5790505b50905060005b84811015611107573073ffffffffffffffffffffffffffffffffffffffff16600b6000600184610f6e9190613610565b815260200190815260200160002060020160009054906101000a900473ffffffffffffffffffffffffffffffffffffffff1673ffffffffffffffffffffffffffffffffffffffff16036110fa576000600182610fca9190613610565b90506000600b60008381526020019081526020016000209050806040518060a0016040529081600082015481526020016001820160009054906101000a900473ffffffffffffffffffffffffffffffffffffffff1673ffffffffffffffffffffffffffffffffffffffff1673ffffffffffffffffffffffffffffffffffffffff1681526020016002820160009054906101000a900473ffffffffffffffffffffffffffffffffffffffff1673ffffffffffffffffffffffffffffffffffffffff1673ffffffffffffffffffffffffffffffffffffffff168152602001600382015481526020016004820160009054906101000a900460ff1615151515815250508486815181106110dd576110dc613644565b5b60200260200101819052506001856110f59190613610565b945050505b8080600101915050610f3e565b508094505050505090565b606060018054611121906133fa565b80601f016020809104026020016040519081016040528092919081815260200182805461114d906133fa565b801561119a5780601f1061116f5761010080835404028352916020019161119a565b820191906000526020600020905b81548152906001019060200180831161117d57829003601f168201915b5050505050905090565b6111b66111af611a3c565b838361240c565b5050565b600a60009054906101000a900473ffffffffffffffffffffffffffffffffffffffff1673ffffffffffffffffffffffffffffffffffffffff163373ffffffffffffffffffffffffffffffffffffffff161461124a576040517f08c379a00000000000000000000000000000000000000000000000000000000081526004016112419061393b565b60405180910390fd5b8060098190555050565b61126561125f611a3c565b83611afd565b6112a4576040517f08c379a000000000000000000000000000000000000000000000000000000000815260040161129b906135c1565b60405180910390fd5b6112b084848484612578565b50505050565b6000600b6000838152602001908152602001600020600301549050803414611313576040517f08c379a000000000000000000000000000000000000000000000000000000000815260040161130a90613875565b60405180910390fd5b33600b600084815260200190815260200160002060020160006101000a81548173ffffffffffffffffffffffffffffffffffffffff021916908373ffffffffffffffffffffffffffffffffffffffff1602179055506001600b600084815260200190815260200160002060040160006101000a81548160ff0219169083151502179055506000600b600084815260200190815260200160002060020160006101000a81548173ffffffffffffffffffffffffffffffffffffffff021916908373ffffffffffffffffffffffffffffffffffffffff1602179055506113f76008611ed6565b611402303384611b92565b600b600083815260200190815260200160002060010160009054906101000a900473ffffffffffffffffffffffffffffffffffffffff1673ffffffffffffffffffffffffffffffffffffffff166108fc349081150290604051600060405180830381858888f1935050505015801561147e573d6000803e3d6000fd5b505050565b606060006114916007611e8b565b905060008060005b83811015611533573373ffffffffffffffffffffffffffffffffffffffff16600b60006001846114c99190613610565b815260200190815260200160002060020160009054906101000a900473ffffffffffffffffffffffffffffffffffffffff1673ffffffffffffffffffffffffffffffffffffffff1603611526576001836115239190613610565b92505b8080600101915050611499565b5060008267ffffffffffffffff8111156115505761154f61300a565b5b60405190808252806020026020018201604052801561158957816020015b611576612ad5565b81526020019060019003908161156e5790505b50905060005b84811015611758573373ffffffffffffffffffffffffffffffffffffffff16600b60006001846115bf9190613610565b815260200190815260200160002060020160009054906101000a900473ffffffffffffffffffffffffffffffffffffffff1673ffffffffffffffffffffffffffffffffffffffff160361174b57600060018261161b9190613610565b90506000600b60008381526020019081526020016000209050806040518060a0016040529081600082015481526020016001820160009054906101000a900473ffffffffffffffffffffffffffffffffffffffff1673ffffffffffffffffffffffffffffffffffffffff1673ffffffffffffffffffffffffffffffffffffffff1681526020016002820160009054906101000a900473ffffffffffffffffffffffffffffffffffffffff1673ffffffffffffffffffffffffffffffffffffffff1673ffffffffffffffffffffffffffffffffffffffff168152602001600382015481526020016004820160009054906101000a900460ff16151515158152505084868151811061172e5761172d613644565b5b60200260200101819052506001856117469190613610565b945050505b808060010191505061158f565b508094505050505090565b60095481565b6060611774826119f1565b6000600660008481526020019081526020016000208054611794906133fa565b80601f01602080910402602001604051908101604052809291908181526020018280546117c0906133fa565b801561180d5780601f106117e25761010080835404028352916020019161180d565b820191906000526020600020905b8154815290600101906020018083116117f057829003601f168201915b50505050509050600061181e6125d4565b90506000815103611833578192505050611876565b600082511115611868578082604051602001611850929190613997565b60405160208183030381529060405292505050611876565b611871846125eb565b925050505b919050565b6000600560008473ffffffffffffffffffffffffffffffffffffffff1673ffffffffffffffffffffffffffffffffffffffff16815260200190815260200160002060008373ffffffffffffffffffffffffffffffffffffffff1673ffffffffffffffffffffffffffffffffffffffff16815260200190815260200160002060009054906101000a900460ff16905092915050565b60007f80ac58cd000000000000000000000000000000000000000000000000000000007bffffffffffffffffffffffffffffffffffffffffffffffffffffffff1916827bffffffffffffffffffffffffffffffffffffffffffffffffffffffff191614806119da57507f5b5e139f000000000000000000000000000000000000000000000000000000007bffffffffffffffffffffffffffffffffffffffffffffffffffffffff1916827bffffffffffffffffffffffffffffffffffffffffffffffffffffffff1916145b806119ea57506119e982612653565b5b9050919050565b6119fa816126bd565b611a39576040517f08c379a0000000000000000000000000000000000000000000000000000000008152600401611a30906136bf565b60405180910390fd5b50565b600033905090565b816004600083815260200190815260200160002060006101000a81548173ffffffffffffffffffffffffffffffffffffffff021916908373ffffffffffffffffffffffffffffffffffffffff160217905550808273ffffffffffffffffffffffffffffffffffffffff16611ab783610b16565b73ffffffffffffffffffffffffffffffffffffffff167f8c5be1e5ebec7d5bd14f71427d1e84f3dd0314c0f7b2291e5b200ac8c7c3b92560405160405180910390a45050565b600080611b0983610b16565b90508073ffffffffffffffffffffffffffffffffffffffff168473ffffffffffffffffffffffffffffffffffffffff161480611b4b5750611b4a818561187b565b5b80611b8957508373ffffffffffffffffffffffffffffffffffffffff16611b718461064f565b73ffffffffffffffffffffffffffffffffffffffff16145b91505092915050565b8273ffffffffffffffffffffffffffffffffffffffff16611bb282610b16565b73ffffffffffffffffffffffffffffffffffffffff1614611c08576040517f08c379a0000000000000000000000000000000000000000000000000000000008152600401611bff90613a2d565b60405180910390fd5b600073ffffffffffffffffffffffffffffffffffffffff168273ffffffffffffffffffffffffffffffffffffffff1603611c77576040517f08c379a0000000000000000000000000000000000000000000000000000000008152600401611c6e90613abf565b60405180910390fd5b611c8483838360016126fe565b8273ffffffffffffffffffffffffffffffffffffffff16611ca482610b16565b73ffffffffffffffffffffffffffffffffffffffff1614611cfa576040517f08c379a0000000000000000000000000000000000000000000000000000000008152600401611cf190613a2d565b60405180910390fd5b6004600082815260200190815260200160002060006101000a81549073ffffffffffffffffffffffffffffffffffffffff02191690556001600360008573ffffffffffffffffffffffffffffffffffffffff1673ffffffffffffffffffffffffffffffffffffffff168152602001908152602001600020600082825403925050819055506001600360008473ffffffffffffffffffffffffffffffffffffffff1673ffffffffffffffffffffffffffffffffffffffff16815260200190815260200160002060008282540192505081905550816002600083815260200190815260200160002060006101000a81548173ffffffffffffffffffffffffffffffffffffffff021916908373ffffffffffffffffffffffffffffffffffffffff160217905550808273ffffffffffffffffffffffffffffffffffffffff168473ffffffffffffffffffffffffffffffffffffffff167fddf252ad1be2c89b69c2b068fc378daa952ba7f163c4a11628f55a4df523b3ef60405160405180910390a4611e868383836001612704565b505050565b600081600001549050919050565b60006002600083815260200190815260200160002060009054906101000a900473ffffffffffffffffffffffffffffffffffffffff169050919050565b6001816000016000828254019250508190555050565b600073ffffffffffffffffffffffffffffffffffffffff168273ffffffffffffffffffffffffffffffffffffffff1603611f5b576040517f08c379a0000000000000000000000000000000000000000000000000000000008152600401611f5290613b2b565b60405180910390fd5b611f64816126bd565b15611fa4576040517f08c379a0000000000000000000000000000000000000000000000000000000008152600401611f9b90613b97565b60405180910390fd5b611fb26000838360016126fe565b611fbb816126bd565b15611ffb576040517f08c379a0000000000000000000000000000000000000000000000000000000008152600401611ff290613b97565b60405180910390fd5b6001600360008473ffffffffffffffffffffffffffffffffffffffff1673ffffffffffffffffffffffffffffffffffffffff16815260200190815260200160002060008282540192505081905550816002600083815260200190815260200160002060006101000a81548173ffffffffffffffffffffffffffffffffffffffff021916908373ffffffffffffffffffffffffffffffffffffffff160217905550808273ffffffffffffffffffffffffffffffffffffffff16600073ffffffffffffffffffffffffffffffffffffffff167fddf252ad1be2c89b69c2b068fc378daa952ba7f163c4a11628f55a4df523b3ef60405160405180910390a4612105600083836001612704565b5050565b612112826126bd565b612151576040517f08c379a000000000000000000000000000000000000000000000000000000000815260040161214890613c29565b60405180910390fd5b806006600084815260200190815260200160002090816121719190613df5565b507ff8e1a15aba9398e019f0b49df1a4fde98ee17ae345cb5f6b5e2c27f5033e8ce7826040516121a19190612ded565b60405180910390a15050565b600081116121f0576040517f08c379a00000000000000000000000000000000000000000000000000000000081526004016121e790613f13565b60405180910390fd5b6009543414612234576040517f08c379a000000000000000000000000000000000000000000000000000000000815260040161222b90613f7f565b60405180910390fd5b6040518060a001604052808381526020013373ffffffffffffffffffffffffffffffffffffffff1681526020013073ffffffffffffffffffffffffffffffffffffffff16815260200182815260200160001515815250600b60008481526020019081526020016000206000820151816000015560208201518160010160006101000a81548173ffffffffffffffffffffffffffffffffffffffff021916908373ffffffffffffffffffffffffffffffffffffffff16021790555060408201518160020160006101000a81548173ffffffffffffffffffffffffffffffffffffffff021916908373ffffffffffffffffffffffffffffffffffffffff1602179055506060820151816003015560808201518160040160006101000a81548160ff02191690831515021790555090505061236d333084611b92565b817fdebdb32cb5230ab727c9c361b16fdb2015df225c10e6a3e7f60ecd5dc5be451633308460006040516123a49493929190613f9f565b60405180910390a25050565b600081600001549050600081116123fc576040517f08c379a00000000000000000000000000000000000000000000000000000000081526004016123f390614030565b60405180910390fd5b6001810382600001819055505050565b8173ffffffffffffffffffffffffffffffffffffffff168373ffffffffffffffffffffffffffffffffffffffff160361247a576040517f08c379a00000000000000000000000000000000000000000000000000000000081526004016124719061409c565b60405180910390fd5b80600560008573ffffffffffffffffffffffffffffffffffffffff1673ffffffffffffffffffffffffffffffffffffffff16815260200190815260200160002060008473ffffffffffffffffffffffffffffffffffffffff1673ffffffffffffffffffffffffffffffffffffffff16815260200190815260200160002060006101000a81548160ff0219169083151502179055508173ffffffffffffffffffffffffffffffffffffffff168373ffffffffffffffffffffffffffffffffffffffff167f17307eab39ab6107e8899845ad3d59bd9653f200f220920489ca2b5937696c318360405161256b9190612be6565b60405180910390a3505050565b612583848484611b92565b61258f8484848461270a565b6125ce576040517f08c379a00000000000000000000000000000000000000000000000000000000081526004016125c59061412e565b60405180910390fd5b50505050565b606060405180602001604052806000815250905090565b60606125f6826119f1565b60006126006125d4565b90506000815111612620576040518060200160405280600081525061264b565b8061262a84612891565b60405160200161263b929190613997565b6040516020818303038152906040525b915050919050565b60007f01ffc9a7000000000000000000000000000000000000000000000000000000007bffffffffffffffffffffffffffffffffffffffffffffffffffffffff1916827bffffffffffffffffffffffffffffffffffffffffffffffffffffffff1916149050919050565b60008073ffffffffffffffffffffffffffffffffffffffff166126df83611e99565b73ffffffffffffffffffffffffffffffffffffffff1614159050919050565b50505050565b50505050565b600061272b8473ffffffffffffffffffffffffffffffffffffffff1661295f565b15612884578373ffffffffffffffffffffffffffffffffffffffff1663150b7a02612754611a3c565b8786866040518563ffffffff1660e01b815260040161277694939291906141a3565b6020604051808303816000875af19250505080156127b257506040513d601f19601f820116820180604052508101906127af9190614204565b60015b612834573d80600081146127e2576040519150601f19603f3d011682016040523d82523d6000602084013e6127e7565b606091505b50600081510361282c576040517f08c379a00000000000000000000000000000000000000000000000000000000081526004016128239061412e565b60405180910390fd5b805181602001fd5b63150b7a0260e01b7bffffffffffffffffffffffffffffffffffffffffffffffffffffffff1916817bffffffffffffffffffffffffffffffffffffffffffffffffffffffff191614915050612889565b600190505b949350505050565b6060600060016128a084612982565b01905060008167ffffffffffffffff8111156128bf576128be61300a565b5b6040519080825280601f01601f1916602001820160405280156128f15781602001600182028036833780820191505090505b509050600082602001820190505b600115612954578080600190039150507f3031323334353637383961626364656600000000000000000000000000000000600a86061a8153600a858161294857612947614231565b5b049450600085036128ff575b819350505050919050565b6000808273ffffffffffffffffffffffffffffffffffffffff163b119050919050565b600080600090507a184f03e93ff9f4daa797ed6e38ed64bf6a1f01000000000000000083106129e0577a184f03e93ff9f4daa797ed6e38ed64bf6a1f01000000000000000083816129d6576129d5614231565b5b0492506040810190505b6d04ee2d6d415b85acef81000000008310612a1d576d04ee2d6d415b85acef81000000008381612a1357612a12614231565b5b0492506020810190505b662386f26fc100008310612a4c57662386f26fc100008381612a4257612a41614231565b5b0492506010810190505b6305f5e1008310612a75576305f5e1008381612a6b57612a6a614231565b5b0492506008810190505b6127108310612a9a576127108381612a9057612a8f614231565b5b0492506004810190505b60648310612abd5760648381612ab357612ab2614231565b5b0492506002810190505b600a8310612acc576001810190505b80915050919050565b6040518060a0016040528060008152602001600073ffffffffffffffffffffffffffffffffffffffff168152602001600073ffffffffffffffffffffffffffffffffffffffff168152602001600081526020016000151581525090565b6000604051905090565b600080fd5b600080fd5b60007fffffffff0000000000000000000000000000000000000000000000000000000082169050919050565b612b7b81612b46565b8114612b8657600080fd5b50565b600081359050612b9881612b72565b92915050565b600060208284031215612bb457612bb3612b3c565b5b6000612bc284828501612b89565b91505092915050565b60008115159050919050565b612be081612bcb565b82525050565b6000602082019050612bfb6000830184612bd7565b92915050565b600081519050919050565b600082825260208201905092915050565b60005b83811015612c3b578082015181840152602081019050612c20565b60008484015250505050565b6000601f19601f8301169050919050565b6000612c6382612c01565b612c6d8185612c0c565b9350612c7d818560208601612c1d565b612c8681612c47565b840191505092915050565b60006020820190508181036000830152612cab8184612c58565b905092915050565b6000819050919050565b612cc681612cb3565b8114612cd157600080fd5b50565b600081359050612ce381612cbd565b92915050565b600060208284031215612cff57612cfe612b3c565b5b6000612d0d84828501612cd4565b91505092915050565b600073ffffffffffffffffffffffffffffffffffffffff82169050919050565b6000612d4182612d16565b9050919050565b612d5181612d36565b82525050565b6000602082019050612d6c6000830184612d48565b92915050565b612d7b81612d36565b8114612d8657600080fd5b50565b600081359050612d9881612d72565b92915050565b60008060408385031215612db557612db4612b3c565b5b6000612dc385828601612d89565b9250506020612dd485828601612cd4565b9150509250929050565b612de781612cb3565b82525050565b6000602082019050612e026000830184612dde565b92915050565b600080600060608486031215612e2157612e20612b3c565b5b6000612e2f86828701612d89565b9350506020612e4086828701612d89565b9250506040612e5186828701612cd4565b9150509250925092565b600081519050919050565b600082825260208201905092915050565b6000819050602082019050919050565b612e9081612cb3565b82525050565b6000612ea182612d16565b9050919050565b612eb181612e96565b82525050565b612ec081612bcb565b82525050565b60a082016000820151612edc6000850182612e87565b506020820151612eef6020850182612ea8565b506040820151612f026040850182612ea8565b506060820151612f156060850182612e87565b506080820151612f286080850182612eb7565b50505050565b6000612f3a8383612ec6565b60a08301905092915050565b6000602082019050919050565b6000612f5e82612e5b565b612f688185612e66565b9350612f7383612e77565b8060005b83811015612fa4578151612f8b8882612f2e565b9750612f9683612f46565b925050600181019050612f77565b5085935050505092915050565b60006020820190508181036000830152612fcb8184612f53565b905092915050565b600060208284031215612fe957612fe8612b3c565b5b6000612ff784828501612d89565b91505092915050565b600080fd5b600080fd5b7f4e487b7100000000000000000000000000000000000000000000000000000000600052604160045260246000fd5b61304282612c47565b810181811067ffffffffffffffff821117156130615761306061300a565b5b80604052505050565b6000613074612b32565b90506130808282613039565b919050565b600067ffffffffffffffff8211156130a05761309f61300a565b5b6130a982612c47565b9050602081019050919050565b82818337600083830152505050565b60006130d86130d384613085565b61306a565b9050828152602081018484840111156130f4576130f3613005565b5b6130ff8482856130b6565b509392505050565b600082601f83011261311c5761311b613000565b5b813561312c8482602086016130c5565b91505092915050565b6000806040838503121561314c5761314b612b3c565b5b600083013567ffffffffffffffff81111561316a57613169612b41565b5b61317685828601613107565b925050602061318785828601612cd4565b9150509250929050565b600080604083850312156131a8576131a7612b3c565b5b60006131b685828601612cd4565b92505060206131c785828601612cd4565b9150509250929050565b6131da81612e96565b82525050565b60006020820190506131f560008301846131d1565b92915050565b61320481612bcb565b811461320f57600080fd5b50565b600081359050613221816131fb565b92915050565b6000806040838503121561323e5761323d612b3c565b5b600061324c85828601612d89565b925050602061325d85828601613212565b9150509250929050565b600067ffffffffffffffff8211156132825761328161300a565b5b61328b82612c47565b9050602081019050919050565b60006132ab6132a684613267565b61306a565b9050828152602081018484840111156132c7576132c6613005565b5b6132d28482856130b6565b509392505050565b600082601f8301126132ef576132ee613000565b5b81356132ff848260208601613298565b91505092915050565b6000806000806080858703121561332257613321612b3c565b5b600061333087828801612d89565b945050602061334187828801612d89565b935050604061335287828801612cd4565b925050606085013567ffffffffffffffff81111561337357613372612b41565b5b61337f878288016132da565b91505092959194509250565b600080604083850312156133a2576133a1612b3c565b5b60006133b085828601612d89565b92505060206133c185828601612d89565b9150509250929050565b7f4e487b7100000000000000000000000000000000000000000000000000000000600052602260045260246000fd5b6000600282049050600182168061341257607f821691505b602082108103613425576134246133cb565b5b50919050565b7f4552433732313a20617070726f76616c20746f2063757272656e74206f776e6560008201527f7200000000000000000000000000000000000000000000000000000000000000602082015250565b6000613487602183612c0c565b91506134928261342b565b604082019050919050565b600060208201905081810360008301526134b68161347a565b9050919050565b7f4552433732313a20617070726f76652063616c6c6572206973206e6f7420746f60008201527f6b656e206f776e6572206f7220617070726f76656420666f7220616c6c000000602082015250565b6000613519603d83612c0c565b9150613524826134bd565b604082019050919050565b600060208201905081810360008301526135488161350c565b9050919050565b7f4552433732313a2063616c6c6572206973206e6f7420746f6b656e206f776e6560008201527f72206f7220617070726f76656400000000000000000000000000000000000000602082015250565b60006135ab602d83612c0c565b91506135b68261354f565b604082019050919050565b600060208201905081810360008301526135da8161359e565b9050919050565b7f4e487b7100000000000000000000000000000000000000000000000000000000600052601160045260246000fd5b600061361b82612cb3565b915061362683612cb3565b925082820190508082111561363e5761363d6135e1565b5b92915050565b7f4e487b7100000000000000000000000000000000000000000000000000000000600052603260045260246000fd5b7f4552433732313a20696e76616c696420746f6b656e2049440000000000000000600082015250565b60006136a9601883612c0c565b91506136b482613673565b602082019050919050565b600060208201905081810360008301526136d88161369c565b9050919050565b7f4552433732313a2061646472657373207a65726f206973206e6f74206120766160008201527f6c6964206f776e65720000000000000000000000000000000000000000000000602082015250565b600061373b602983612c0c565b9150613746826136df565b604082019050919050565b6000602082019050818103600083015261376a8161372e565b9050919050565b7f4f6e6c79206974656d206f776e65722063616e20706572666f726d207468697360008201527f206f7065726174696f6e00000000000000000000000000000000000000000000602082015250565b60006137cd602a83612c0c565b91506137d882613771565b604082019050919050565b600060208201905081810360008301526137fc816137c0565b9050919050565b7f506c65617365207375626d6974207468652061736b696e67207072696365206960008201527f6e206f7264657220746f20636f6d706c65746520746865207075726368617365602082015250565b600061385f604083612c0c565b915061386a82613803565b604082019050919050565b6000602082019050818103600083015261388e81613852565b9050919050565b60006138a082612cb3565b91506138ab83612cb3565b92508282039050818111156138c3576138c26135e1565b5b92915050565b7f4f6e6c7920746865206f776e6572206f6620746865206d61726b657420706c6160008201527f63652063616e206368616e676520746865206c697374696e6720707269636500602082015250565b6000613925603f83612c0c565b9150613930826138c9565b604082019050919050565b6000602082019050818103600083015261395481613918565b9050919050565b600081905092915050565b600061397182612c01565b61397b818561395b565b935061398b818560208601612c1d565b80840191505092915050565b60006139a38285613966565b91506139af8284613966565b91508190509392505050565b7f4552433732313a207472616e736665722066726f6d20696e636f72726563742060008201527f6f776e6572000000000000000000000000000000000000000000000000000000602082015250565b6000613a17602583612c0c565b9150613a22826139bb565b604082019050919050565b60006020820190508181036000830152613a4681613a0a565b9050919050565b7f4552433732313a207472616e7366657220746f20746865207a65726f2061646460008201527f7265737300000000000000000000000000000000000000000000000000000000602082015250565b6000613aa9602483612c0c565b9150613ab482613a4d565b604082019050919050565b60006020820190508181036000830152613ad881613a9c565b9050919050565b7f4552433732313a206d696e7420746f20746865207a65726f2061646472657373600082015250565b6000613b15602083612c0c565b9150613b2082613adf565b602082019050919050565b60006020820190508181036000830152613b4481613b08565b9050919050565b7f4552433732313a20746f6b656e20616c7265616479206d696e74656400000000600082015250565b6000613b81601c83612c0c565b9150613b8c82613b4b565b602082019050919050565b60006020820190508181036000830152613bb081613b74565b9050919050565b7f45524337323155524953746f726167653a2055524920736574206f66206e6f6e60008201527f6578697374656e7420746f6b656e000000000000000000000000000000000000602082015250565b6000613c13602e83612c0c565b9150613c1e82613bb7565b604082019050919050565b60006020820190508181036000830152613c4281613c06565b9050919050565b60008190508160005260206000209050919050565b60006020601f8301049050919050565b600082821b905092915050565b600060088302613cab7fffffffffffffffffffffffffffffffffffffffffffffffffffffffffffffffff82613c6e565b613cb58683613c6e565b95508019841693508086168417925050509392505050565b6000819050919050565b6000613cf2613ced613ce884612cb3565b613ccd565b612cb3565b9050919050565b6000819050919050565b613d0c83613cd7565b613d20613d1882613cf9565b848454613c7b565b825550505050565b600090565b613d35613d28565b613d40818484613d03565b505050565b5b81811015613d6457613d59600082613d2d565b600181019050613d46565b5050565b601f821115613da957613d7a81613c49565b613d8384613c5e565b81016020851015613d92578190505b613da6613d9e85613c5e565b830182613d45565b50505b505050565b600082821c905092915050565b6000613dcc60001984600802613dae565b1980831691505092915050565b6000613de58383613dbb565b9150826002028217905092915050565b613dfe82612c01565b67ffffffffffffffff811115613e1757613e1661300a565b5b613e2182546133fa565b613e2c828285613d68565b600060209050601f831160018114613e5f5760008415613e4d578287015190505b613e578582613dd9565b865550613ebf565b601f198416613e6d86613c49565b60005b82811015613e9557848901518255600182019150602085019450602081019050613e70565b86831015613eb25784890151613eae601f891682613dbb565b8355505b6001600288020188555050505b505050505050565b7f5072696365206d757374206265206174206c6561737420310000000000000000600082015250565b6000613efd601883612c0c565b9150613f0882613ec7565b602082019050919050565b60006020820190508181036000830152613f2c81613ef0565b9050919050565b7f5072696365206d75737420626520657175616c00000000000000000000000000600082015250565b6000613f69601383612c0c565b9150613f7482613f33565b602082019050919050565b60006020820190508181036000830152613f9881613f5c565b9050919050565b6000608082019050613fb46000830187612d48565b613fc16020830186612d48565b613fce6040830185612dde565b613fdb6060830184612bd7565b95945050505050565b7f436f756e7465723a2064656372656d656e74206f766572666c6f770000000000600082015250565b600061401a601b83612c0c565b915061402582613fe4565b602082019050919050565b600060208201905081810360008301526140498161400d565b9050919050565b7f4552433732313a20617070726f766520746f2063616c6c657200000000000000600082015250565b6000614086601983612c0c565b915061409182614050565b602082019050919050565b600060208201905081810360008301526140b581614079565b9050919050565b7f4552433732313a207472616e7366657220746f206e6f6e20455243373231526560008201527f63656976657220696d706c656d656e7465720000000000000000000000000000602082015250565b6000614118603283612c0c565b9150614123826140bc565b604082019050919050565b600060208201905081810360008301526141478161410b565b9050919050565b600081519050919050565b600082825260208201905092915050565b60006141758261414e565b61417f8185614159565b935061418f818560208601612c1d565b61419881612c47565b840191505092915050565b60006080820190506141b86000830187612d48565b6141c56020830186612d48565b6141d26040830185612dde565b81810360608301526141e4818461416a565b905095945050505050565b6000815190506141fe81612b72565b92915050565b60006020828403121561421a57614219612b3c565b5b6000614228848285016141ef565b91505092915050565b7f4e487b7100000000000000000000000000000000000000000000000000000000600052601260045260246000fdfea264697066735822122088ae42e3b81629b88b2e36b2835724193e56081a66e0abc7bda8e0d012a2516c64736f6c63430008180033",
  "linkReferences": {},
  "deployedLinkReferences": {}
}